:100000000C945D000C9485000C9485000C94850084
:100010000C9485000C9485000C9485000C9485004C
:100020000C9485000C9485000C9485000C9485003C
:100030000C9485000C9485000C9485000C9485002C
:100040000C940A050C9485000C94D8040C94B2040A
:100050000C9485000C9485000C9485000C9485000C
:100060000C9485000C94850000000008000201003B
:100070000003040700000000000000000000000072
:10008000250028002B0000000000240027002A0083
:10009000040404040404040402020202020203032E
:1000A0000303030301020408102040800102040836
:1000B0001020010204081020540511241FBECFEFA8
:1000C000D8E0DEBFCDBF22E0A2E5B1E001C01D92C5
:1000D000AC31B207E1F711E0A0E0B1E0EAE0F4E111
:1000E00002C005900D92A235B107D9F710E0CDE519
:1000F000D0E004C02197FE010E94FD09CC35D10754
:10010000C9F70E949F050C94030A0C94000090E02C
:10011000FC01EC55FF4F249180579F4FFC018491C7
:10012000882399F090E0880F991FFC01EA57FF4F50
:10013000A591B491FC01E458FF4F859194918FB73C
:10014000F894EC91E22BEC938FBF0895AF92BF929D
:10015000CF92DF92EF92FF920F931F93CF93DF9393
:100160006C017B018B01040F151FEB015E01AE18C2
:10017000BF08C017D10759F06991D601ED91FC91E4
:100180000190F081E02DC6010995892B79F7C50111
:10019000DF91CF911F910F91FF90EF90DF90CF9063
:1001A000BF90AF900895FC01538D448D252F30E012
:1001B000842F90E0821B930B541710F0CF96089574
:1001C00001970895FC01918D828D981761F0A28DA1
:1001D000AE0FBF2FB11D5D968C91928D9F5F9F7367
:1001E000928F90E008958FEF9FEF0895FC01918D1D
:1001F000828D981731F0828DE80FF11D858D90E08A
:1002000008958FEF9FEF08952FB7F89480916301C1
:1002100090916401A0916501B09166012FBF809318
:100220006F0190937001A0937101B093720187E602
:1002300091E00E94F60097FF26C02FB7F8948091B6
:10024000630190916401A0916501B09166012FBF97
:1002500040916F0150917001609171017091720134
:10026000841B950BA60BB70B40916B0150916C0151
:1002700060916D0170916E0184179507A607B7070D
:10028000B0F28FEF9FEF08958F929F92AF92BF923F
:10029000CF92DF92EF92FF92CF93DF930E940401FF
:1002A000FC0197FD88C08D32910509F04CC0812C6E
:1002B000912C80E8A82E8FE3B82EC12CD12C76018A
:1002C000C0E0D0E0E130F10559F1ED32F10509F47B
:1002D00047C0EE32F10509F445C0CF01C0970A9737
:1002E000F8F4AAE0B0E0A70196010E9414096F019A
:1002F000FF0FEE08FF08C60ED71EE81EF91E80E3AA
:10030000C81AD108E108F108CC2351F02DEC3CECDF
:100310004CEC5DE3C501B4010E9456084B015C0141
:1003200087E691E00E94E2000E940401FC01C09770
:100330000A9740F2EE32F105B9F4CC2319F2CD2F31
:10034000D11118C025C0C0970A9708F4B0CFEE327B
:10035000F10509F4ACCF87E691E00E94E2009ECF60
:10036000D1E0DECFC1E0DCCFE130F10509F4AACF66
:10037000DD2341F0F094E094D094C094C11CD11CD2
:10038000E11CF11CC701B6010E94F707CC2341F024
:10039000C701B6010E94F707A50194010E94560803
:1003A000DF91CF91FF90EF90DF90CF90BF90AF9013
:1003B0009F908F90089560E070E0CB01F1CFFC0139
:1003C000918D228D892F90E0805C9F4F821B910937
:1003D0008F739927089587E691E00E94DF0121E05D
:1003E000892B09F420E0822F089580E090E0892B8A
:1003F00029F00E94EB0181110C9400000895FC018A
:10040000A48DA80FB92FB11DA35ABF4F2C91848D75
:1004100090E001968F739927848FA689B7892C93D2
:10042000A089B1898C91837080648C93938D848D25
:10043000981306C00288F389E02D80818F7D808328
:100440000895EF92FF920F931F93CF93DF93EC01E8
:1004500081E0888F9B8D8C8D98131AC0E889F9896B
:10046000808185FF15C09FB7F894EE89FF8960836E
:10047000E889F98980818370806480839FBF81E0EF
:1004800090E0DF91CF911F910F91FF90EF90089531
:10049000F62E0B8D10E00F5F1F4F0F731127E02E0C
:1004A0008C8D8E110CC00FB607FCFACFE889F98944
:1004B000808185FFF5CFCE010E94FF01F1CFEB8D4A
:1004C000EC0FFD2FF11DE35AFF4FF0829FB7F89418
:1004D0000B8FEA89FB8980818062CFCFCF93DF9336
:1004E000EC01888D8823B9F0AA89BB89E889F9894C
:1004F0008C9185FD03C0808186FD0DC00FB607FC81
:10050000F7CF8C9185FFF2CF808185FFEDCFCE01B3
:100510000E94FF01E9CFDF91CF91089590E0FC01A7
:10052000E859FF4F2491FC01EC55FF4F3491FC0139
:10053000E057FF4FE491EE23C9F0222339F0233036
:1005400001F1A8F4213019F1223029F1F0E0EE0F89
:10055000FF1FE458FF4FA591B4918FB7F894EC9129
:10056000611126C030953E233C938FBF08952730FC
:10057000A9F02830C9F0243049F7809180008F7DA0
:1005800003C0809180008F7780938000DFCF84B597
:100590008F7784BDDBCF84B58F7DFBCF8091B0009A
:1005A0008F778093B000D2CF8091B0008F7DF9CF4C
:1005B0003E2BDACF089590E080E00895CF93DF934B
:1005C000EC0160E08E810E948E0261E08E810E94CB
:1005D0008E0260E08E810E948E028BE891E001978E
:1005E000F1F7DF91CF910895CF92DF92EF92FF92D2
:1005F0000F931F93CF93DF936C017C0187E0E80E8C
:10060000F11CD0E0C0E0062F10E0B8010C2E02C0B3
:10061000759567950A94E2F76170F70181917F0102
:100620000E948E022196C430D10579F7C601DF9170
:10063000CF911F910F91FF90EF90DF90CF900C948E
:10064000DE02CF92DF92EF92FF920F931F93CF9330
:10065000DF93EC01F62E642F8C810E948E028D8137
:100660008F3F19F060E00E948E020F2D10E08F8501
:1006700084FF25C06E0187E0C80ED11CF12CE12C4F
:10068000B8010E2C02C0759567950A94E2F7617067
:10069000F60181916F010E948E02FFEFEF1AFF0AAF
:1006A00088E0E816F10461F7CE01DF91CF911F9148
:1006B0000F91FF90EF90DF90CF900C94DE02B80185
:1006C00084E0759567958A95E1F7CE010E94F40262
:1006D0006F2DCE01DF91CF911F910F91FF90EF9081
:1006E000DF90CF900C94F40240E0682F84E092E019
:1006F0000C942103CF93DF93613029F09091130282
:10070000986090931302609317021092180290E47D
:100710009093190280931A02805C80931B0280914F
:1007200008020E948700809109028F3F11F00E9409
:10073000870080910A020E948700C4E0D2E09E01F7
:10074000245032408091130284FD0AC084E090E07E
:100750002196281739073CF48E810E948700EFCF3D
:1007600088E090E0F5CF8BE39DE00197F1F760E042
:10077000809108020E948E0260E080910A020E942D
:100780008E02809109028F3F19F060E00E948E0274
:100790008091130284FD39C063E084E092E00E94FE
:1007A000F402CBE4D6E4CE010197F1F763E084E0F4
:1007B00092E00E94F4022197F1F763E084E092E076
:1007C0000E94F40283E592E00197F1F762E084E091
:1007D00092E00E94F4028091130280620E947403EE
:1007E00084E0809314028CE00E94740381E00E94F4
:1007F00074038BE39FE10197F1F782E08093150288
:1008000086E0DF91CF910C94740380620E947403A0
:100810008BE496E40197F1F78091130280620E94C5
:10082000740383E592E00197F1F7809113028062EF
:100830000E947403D0CF41E00E94210381E090E048
:100840000895FB0101900020E9F73197AF01461BA5
:10085000570BDC01ED91FC910280F381E02D0994AE
:100860008F929F92AF92BF92EF92FF920F931F933E
:10087000CF93DF93CDB7DEB7A1970FB6F894DEBF65
:100880000FBECDBF7C01FA01CB0119A2223008F4C2
:100890002AE08E010F5D1F4F822E912CB12CA12CCE
:1008A000BF01A50194010E94DB09F901CA016A3068
:1008B0000CF5605DD8016E938D01232B242B252B25
:1008C00079F790E080E0109721F0BD01C7010E9408
:1008D0002104A1960FB6F894DEBF0FBECDBFDF9105
:1008E000CF911F910F91FF90EF90BF90AF909F908D
:1008F0008F900895695CDECFCF92DF92EF92FF92E6
:100900000F931F93CF93DF9377FF21C06A017B0181
:10091000EC01E881F9810190F081E02D6DE209950B
:100920008C0144275527BA014C195D096E097F09CE
:100930002AE0CE010E943004800F911FDF91CF91F9
:100940001F910F91FF90EF90DF90CF9008952AE0D4
:10095000DF91CF911F910F91FF90EF90DF90CF909B
:100960000C9430041F920F920FB60F9211242F9304
:100970003F934F935F936F937F938F939F93AF9327
:10098000BF93EF93FF9387E691E00E94FF01FF91F1
:10099000EF91BF91AF919F918F917F916F915F91F7
:1009A0004F913F912F910F900FBE0F901F90189570
:1009B0001F920F920FB60F9211242F938F939F9334
:1009C000EF93FF93E0917701F09178018081E091BE
:1009D0007D01F0917E0182FD1BC09081809180019C
:1009E0008F5F8F7320918101821741F0E091800128
:1009F000F0E0E959FE4F958F80938001FF91EF91D0
:100A00009F918F912F910F900FBE0F901F9018956F
:100A10008081F4CF1F920F920FB60F9211242F9363
:100A20003F938F939F93AF93BF9380916301909176
:100A30006401A0916501B09166013091560123E0F7
:100A4000230F2D3758F50196A11DB11D2093560196
:100A50008093630190936401A0936501B093660154
:100A60008091520190915301A0915401B091550190
:100A70000196A11DB11D8093520190935301A09343
:100A80005401B0935501BF91AF919F918F913F91C8
:100A90002F910F900FBE0F901F90189526E8230FEF
:100AA0000296A11DB11DD2CFE7E6F1E013821282BA
:100AB00088EE93E0A0E0B0E084839583A683B783BB
:100AC00084E091E09183808385EC90E09587848732
:100AD00084EC90E09787868780EC90E0918B808B08
:100AE00081EC90E0938B828B82EC90E0958B848BF1
:100AF00086EC90E0978B868B118E128E138E148E5F
:100B0000E4E0F2E01382128286E191E09183808337
:100B10008CE084838FEF85838BE0868385E08783F9
:100B200084E0808783E0818782E082871386148651
:100B300015861686178661E080E10C947A03CF93C0
:100B4000DF931F92CDB7DEB7789484B5826084BD01
:100B500084B5816084BD85B5826085BD85B58160C1
:100B600085BD80916E00816080936E00109281003F
:100B700080918100826080938100809181008160FA
:100B800080938100809180008160809380008091BB
:100B9000B10084608093B1008091B0008160809347
:100BA000B00080917A00846080937A0080917A000E
:100BB000826080937A0080917A00816080937A00CD
:100BC00080917A00806880937A001092C100109220
:100BD0005C0110925B0164E084E10E947A03E09181
:100BE0007701F091780182E08083E0917301F091C8
:100BF00074011082E0917501F09176018FEC808391
:100C000010927F01E0917B01F0917C0186E080836E
:100C1000E0917901F0917A01808180618083E09197
:100C20007901F0917A01808188608083E091790177
:100C3000F0917A01808180688083E0917901F09160
:100C40007A0180818F7D808380E0882E80E0982EDD
:100C50009AE0292E312C04E110E020E4A22EB12CE0
:100C600087E691E00E94DF0104970CF4EDC087E66F
:100C700091E00E94E200883451F40E9444016093A4
:100C80005F0170936001809361019093620187E638
:100C900091E00E94E200843509F0D8C00E9444012E
:100CA00060935701709358018093590190935A01B2
:100CB00081E08983E1E0809117028111E0E0E19514
:100CC000F0E0EC5FFD4F848980680E9474036EE160
:100CD00071E084E092E00E942104609157017091DC
:100CE00058018091590190915A010E949B09AB01D2
:100CF000770F660B770B84E092E00E947C04E09112
:100D00001702E23008F0A5C0E150F0E0EC5FFD4FC3
:100D1000848980680E9474036CE271E084E092E050
:100D20000E942104C0905F01D0906001E0906101B9
:100D3000F0906201A7019601C701B6010E94D60991
:100D400067E371E081111BC026013701E89477F851
:100D50002FEF3FEF4FE75FE7C301B2010E94D609D3
:100D6000811179C02FEF3FEF4FE75FE7C301B20179
:100D70000E94F00718160CF06EC06BE371E084E07F
:100D800092E00E942104E0911702E33008F0E3C0F2
:100D9000E150F0E0EC5FFD4F848980680E947403AD
:100DA00063E471E084E092E00E94210440915D01DF
:100DB00050915E01052E000C660B770B84E092E0EB
:100DC0000E947C046BE471E084E092E00E942104C4
:100DD0008981882369F1C0905F01D0906001E09023
:100DE0006101F090620120E030E048E452E4C70184
:100DF000B6010E94D10918160CF0AFC010925E0126
:100E000010925D0110925C0110925B0140915B01B8
:100E100050915C01052E000C660B770B87E691E084
:100E20000E947C046EE471E087E691E00E94210458
:100E30008114910409F414CF0E94EB01882309F472
:100E40000FCF0E9400000CCF198234CF91E099831C
:100E500031CFE1E05ACF2FEF3FEF4FE75FE4C7011B
:100E6000B6010E94D10918161CF46FE371E087CF18
:100E70002FEF3FEF4FE75FECC701B6010E94F0078D
:100E800087FDF3CF20E030E0A901C701B6010E9441
:100E9000F00787FF0AC041E06DE284E092E00E9423
:100EA0002103F7FAF094F7F8F0942AE037ED43EADB
:100EB0005BE3C701B6010E942F092B013C010E9490
:100EC000A2096B017C010E94F5079B01AC01C301E3
:100ED000B2010E942E092B013C012AE0B701A601B4
:100EE00084E092E00E94300441E06EE284E092E00F
:100EF0000E94210320E030E040E251E4C301B2014E
:100F00000E9456082B013C010E94A2096B01F12CA2
:100F1000E12C2AE0B701A60184E092E00E943004AF
:100F2000C701B6010E94F5079B01AC01C301B201E4
:100F30000E942E0920E030E040E251E40E94560871
:100F40000E94A209AB0170E060E02AE084E092E038
:100F50000E94300418CFE2E01CCF20E030E040EAED
:100F600051E4C701B6010E94F00787FF09C0109342
:100F70005E0100935D01B0925C01A0925B0146CFDF
:100F800020E030E040EA51E4C701B6010E94D109F7
:100F900087FD3CCF20E030E048E452E4C701B601D1
:100FA0000E94F00718160CF431CF20E030E048EC36
:100FB00051E46091570170915801809159019091CD
:100FC0005A010E94F00787FD19CF30925E012092EE
:100FD0005D0189E190E090935C0180935B0116CF05
:100FE0000E94320808F481E00895E89409C097FB54
:100FF0003EF490958095709561957F4F8F4F9F4FF0
:101000009923A9F0F92F96E9BB279395F695879533
:1010100077956795B795F111F8CFFAF4BB0F11F4F6
:1010200060FF1BC06F5F7F4F8F4F9F4F16C088239D
:1010300011F096E911C0772321F09EE8872F762FD3
:1010400005C0662371F096E8862F70E060E02AF014
:101050009A95660F771F881FDAF7880F9695879500
:1010600097F90895990F0008550FAA0BE0E8FEEFD5
:1010700016161706E807F907C0F012161306E4075C
:10108000F50798F0621B730B840B950B39F40A2655
:1010900061F0232B242B252B21F408950A2609F433
:1010A000A140A6958FEF811D811D08950E946908BA
:1010B0000C94DA080E94CC0838F00E94D30820F083
:1010C000952311F00C94C3080C94C90811240C94B6
:1010D0000E090E94EB0870F3959FC1F3950F50E045
:1010E000551F629FF001729FBB27F00DB11D639FDA
:1010F000AA27F00DB11DAA1F649F6627B00DA11D80
:10110000661F829F2227B00DA11D621F739FB00D25
:10111000A11D621F839FA00D611D221F749F332795
:10112000A00D611D231F849F600D211D822F762F2E
:101130006A2F11249F5750409AF0F1F088234AF00B
:10114000EE0FFF1FBB1F661F771F881F9150504077
:10115000A9F79E3F510580F00C94C3080C940E092A
:101160005F3FE4F3983ED4F3869577956795B795FE
:10117000F795E7959F5FC1F7FE2B880F911D969518
:10118000879597F9089597F99F6780E870E060E088
:1011900008959FEF80EC089500240A941616170610
:1011A00018060906089500240A9412161306140658
:1011B00005060895092E0394000C11F4882352F0BB
:1011C000BB0F40F4BF2B11F460FF04C06F5F7F4F73
:1011D0008F4F9F4F089557FD9058440F551F59F05A
:1011E0005F3F71F04795880F97FB991F61F09F3F14
:1011F00079F087950895121613061406551FF2CF3D
:101200004695F1DF08C0161617061806991FF1CF8C
:1012100086957105610508940895E894BB276627B3
:101220007727CB0197F908950E941F09A59F900D7C
:10123000B49F900DA49F800D911D11240895A29F2D
:10124000B001B39FC001A39F700D811D1124911D9A
:10125000B29F700D811D1124911D08955058BB2718
:10126000AA270E9446090C94DA080E94CC0838F09C
:101270000E94D30820F039F49F3F19F426F40C940F
:10128000C9080EF4E095E7FB0C94C308E92F0E940F
:10129000EB0858F3BA17620773078407950720F025
:1012A00079F4A6F50C940D090EF4E0950B2EBA2FE7
:1012B000A02D0B01B90190010C01CA01A00111245C
:1012C000FF27591B99F0593F50F4503E68F11A1608
:1012D000F040A22F232F342F4427585FF3CF469599
:1012E00037952795A795F0405395C9F77EF41F16BB
:1012F000BA0B620B730B840BBAF09150A1F0FF0F85
:10130000BB1F661F771F881FC2F70EC0BA0F621F70
:10131000731F841F48F4879577956795B795F79560
:101320009E3F08F0B0CF9395880F08F09927EE0FF5
:101330009795879508950E94A2096894B1110C941D
:101340000E0908950E94F30888F09F5798F0B92F6E
:101350009927B751B0F0E1F0660F771F881F991FEA
:101360001AF0BA95C9F714C0B13091F00E940D0976
:10137000B1E008950C940D09672F782F8827B85F86
:1013800039F0B93FCCF3869577956795B395D9F742
:101390003EF490958095709561957F4F8F4F9F4F4C
:1013A00008950E94320808F48FEF08950E943208D1
:1013B000880B990B0895A1E21A2EAA1BBB1BFD01F5
:1013C0000DC0AA1FBB1FEE1FFF1FA217B307E40724
:1013D000F50720F0A21BB30BE40BF50B661F771F7C
:1013E000881F991F1A9469F760957095809590955C
:1013F0009B01AC01BD01CF010895EE0FFF1F0590C9
:0A140000F491E02D0994F894FFCF59
:10140A00000000002102A600D3006E02DF01E20004
:10141A00F600000000001B04A600DB02DA02546595
:10142A006D70657261747572653A200048756D69F0
:10143A00646974793A20006E616E00696E66006FA5
:10144A0076660057617465723A20006363000D0A7C
:02145A00000090
:00000001FF
