:100000000C94DA000C9402010C9402010C9402018D
:100010000C9402010C9402010C9402010C94020154
:100020000C9402010C9402010C9402010C94020144
:100030000C9402010C9402010C9402010C94020134
:100040000C940E070C9402010C94DC060C94B6067A
:100050000C9402010C9402010C9402010C94020114
:100060000C9458070C94020100407A10F35A00A037
:10007000724E18090010A5D4E80000E87648170071
:1000800000E40B54020000CA9A3B000000E1F505B1
:10009000000080969800000040420F000000A086FB
:1000A00001000000102700000000E803000000002D
:1000B0006400000000000A000000000001000000D1
:1000C00000002C76D888DC674F0823DFC1DFAE59EB
:1000D000E1B1B796E5E3E453C63AE651997696E87E
:1000E000E6C28426EB898C9B62ED407C6FFCEFBC02
:1000F0009C9F40F2BAA56FA5F490055A2AF75C932D
:100100006B6CF9676DC11BFCE0E40D47FEF520E662
:10011000B500D0ED902E0300943577050080841E45
:10012000080000204E0A000000C80C333333330FA0
:10013000986E12831141EF8D2114893BE65516CF3D
:10014000FEE6DB18D1844B381BF77C1D901DA4BB49
:10015000E424203284725E228100C9F124ECA1E5FE
:100160003D27000000080002010000030407000012
:1001700000000000000000000000250028002B0007
:1001800000000000240027002A00040404040404E2
:100190000404020202020202030303030303010236
:1001A0000408102040800102040810200102040805
:1001B0001020770811241FBECFEFD8E0DEBFCDBFDF
:1001C00022E0A2E3B1E001C01D92A23AB207E1F73A
:1001D00011E0A0E0B1E0E0E6F2E202C005900D928D
:1001E000A233B107D9F710E0CAEDD0E004C02197DF
:1001F000FE010E94360FC93DD107C9F70E94B00821
:100200000C942E110C94000090E0FC01E256FE4F7D
:10021000249186579E4FFC018491882399F090E0A9
:10022000880F991FFC01E058FE4FA591B491FC0185
:10023000EA58FE4F859194918FB7F894EC91E22B98
:10024000EC938FBF08958091800190917F01891B6D
:10025000990B089508950895AF92BF92CF92DF92BF
:10026000EF92FF920F931F93CF93DF936C017B016B
:100270008B01040F151FEB015E01AE18BF08C017FC
:10028000D10759F06991D601ED91FC910190F0816F
:10029000E02DC6010995892B79F7C501DF91CF9132
:1002A0001F910F91FF90EF90DF90CF90BF90AF9094
:1002B0000895FC01538D448D252F30E0842F90E06C
:1002C000821B930B541710F0CF9608950197089551
:1002D000FC01918D828D981761F0A28DAE0FBF2F1A
:1002E000B11D5D968C91928D9F5F9F73928F90E070
:1002F00008958FEF9FEF0895FC01918D828D9817DF
:1003000031F0828DE80FF11D858D90E008958FEF1B
:100310009FEF08952FB7F894809181019091820109
:10032000A0918301B09184012FBF8093FD01909330
:10033000FE01A093FF01B093000285EF91E00E94BF
:100340007C0197FF26C02FB7F8948091810190918E
:100350008201A0918301B09184012FBF4091FD01E2
:100360005091FE016091FF0170910002841B950B7A
:10037000A60BB70B4091F9015091FA016091FB0176
:100380007091FC0184179507A607B707B0F28FEFAD
:100390009FEF0895FC01918D228D892F90E0805C64
:1003A0009F4F821B91098F739927089585EF91E0E4
:1003B0000E94CA0121E0892B09F420E0822F0895D0
:1003C00080E090E0892B29F00E94D60181110C94E5
:1003D00000000895FC01A48DA80FB92FB11DA35AE8
:1003E000BF4F2C91848D90E001968F739927848F55
:1003F000A689B7892C93A089B1898C918370806478
:100400008C93938D848D981306C00288F389E02D18
:1004100080818F7D80830895EF92FF920F931F93C9
:10042000CF93DF93EC0181E0888F9B8D8C8D9813A7
:100430001AC0E889F989808185FF15C09FB7F894B3
:10044000EE89FF896083E889F989808183708064FF
:1004500080839FBF81E090E0DF91CF911F910F914A
:10046000FF90EF900895F62E0B8D10E00F5F1F4F59
:100470000F731127E02E8C8D8E110CC00FB607FC68
:10048000FACFE889F989808185FFF5CFCE010E94F6
:10049000EA01F1CFEB8DEC0FFD2FF11DE35AFF4F79
:1004A000F0829FB7F8940B8FEA89FB898081806284
:1004B000CFCFCF93DF93EC01888D8823B9F0AA8941
:1004C000BB89E889F9898C9185FD03C0808186FD0F
:1004D0000DC00FB607FCF7CF8C9185FFF2CF80815E
:1004E00085FFEDCFCE010E94EA01E9CFDF91CF91E8
:1004F000089590E0FC01EE59FE4F2491FC01E25674
:10050000FE4F3491FC01E657FE4FE491EE23C9F013
:10051000222339F0233001F1A8F4213019F12230DF
:1005200029F1F0E0EE0FFF1FEA58FE4FA591B491BC
:100530008FB7F894EC91611126C030953E233C931F
:100540008FBF08952730A9F02830C9F0243049F72B
:10055000809180008F7D03C0809180008F77809391
:100560008000DFCF84B58F7784BDDBCF84B58F7DEE
:10057000FBCF8091B0008F778093B000D2CF809175
:10058000B0008F7DF9CF3E2BDACF3FB7F894809142
:10059000770190917801A0917901B0917A0126B507
:1005A000A89B05C02F3F19F00196A11DB11D3FBFAB
:1005B000BA2FA92F982F8827BC01CD01620F711D7A
:1005C000811D911D42E0660F771F881F991F4A9574
:1005D000D1F708958F929F92AF92BF92CF92DF9200
:1005E000EF92FF924B015C010E94C5026B017C01FE
:1005F0000E94C5026C197D098E099F09683E7340EF
:1006000081059105A8F321E0821A9108A108B1089B
:1006100088EEC80E83E0D81EE11CF11C8114910401
:10062000A104B10429F7FF90EF90DF90CF90BF9025
:10063000AF909F908F90089520915301260F3327FC
:10064000331F21323105ECF42091EF01FC0190E0E1
:1006500080E0243069F082E00895A0915301219157
:10066000AC014D5C5E4FA40FB52FB11D2C930196CC
:10067000861798F380915301680F6093530180E0CF
:10068000089581E008951092EF0181E08093CE01FA
:100690001092C90161E082E10E94790261E083E188
:1006A0000E947902E9EBF0E080818E7F8083808177
:1006B0008D7F808388E48093B80085E48093BC00BC
:1006C0000895CF93DF9391E0909332018823B9F09E
:1006D000C091B800D091BA008091BC008A7B809311
:1006E000BC0060E082E10E94790260E083E10E9448
:1006F00079020E944303D093BA00C093B800DF91FF
:10070000CF910895CF92DF92EF92FF920F931F93B4
:10071000CF93DF93D82FC62F613208F098C00E9484
:10072000C5026B017C018091EF0181116BC081E0FA
:100730008093EF018093CE019FEF9093CD011092B3
:10074000CC019C0F9093CB018093CA018091CA0188
:10075000DD0FD82BD093CA018091C901813009F0F7
:1007600078C01092C9010E94C5026B017C01809182
:10077000CA018093BB008091F1019091F201A09198
:10078000F301B091F401892B8A2B8B2BA1F00E94ED
:10079000C5020091F1011091F2012091F301309115
:1007A000F4016C197D098E099F09061717072807A0
:1007B000390708F448C08091BC0083FDD8CF85EC90
:1007C0008093BC000E94C5026B017C018091EF0107
:1007D000813009F440C08091CC018C1710F4C09195
:1007E000CC01E9EAF1E0AFECB1E080E08C1355C058
:1007F0008C2FDF91CF911F910F91FF90EF90DF90A1
:10080000CF9008958091F1019091F201A091F301B0
:10081000B091F401892B8A2B8B2B09F484CF0E9491
:10082000C5020091F1011091F2012091F301309184
:10083000F4016C197D098E099F090617170728070F
:10084000390708F070CF8091F0010E946103C0E089
:10085000CFCF85EEB5CF8091F1019091F201A091BB
:10086000F301B091F401892B8A2B8B2B09F4AECFC5
:100870000E94C5020091F1011091F2012091F30153
:100880003091F4016C197D098E099F09061717072D
:100890002807390708F09ACFD6CF91919D938F5FA3
:1008A000A5CF8F929F92AF92BF92CF92DF92EF929D
:1008B000FF920F931F93CF93DF93D091A801D13272
:1008C00008F0D7C0182FC091A7010E94C5026B0184
:1008D0007C018091EF0181116BC082E08093EF0178
:1008E0001093CE018FEF8093CD011092CC01D09365
:1008F000CB01A7E8B1E0E9EAF1E080E0D81391C0CC
:100900001092CA018091CA01CC0FC82BC093CA01B2
:100910008091C901813009F088C01092C9010E94FC
:10092000C5026B017C018091CA018093BB0080915C
:10093000F1019091F201A091F301B091F401892BA2
:100940008A2B8B2BA1F00E94C5020091F10110911E
:10095000F2012091F3013091F4016C197D098E09A7
:100960009F09061717072807390708F442C0809126
:10097000BC0083FDD8CF85EC8093BC000E94C502EB
:100980006B017C018091EF01823009F450C08091AD
:10099000CD018F3F09F46FC08091CD01803209F401
:1009A0006CC08091CD01803309F469C084E026C019
:1009B0008091F1019091F201A091F301B091F401C5
:1009C000892B8A2B8B2B09F484CF0E94C50280903F
:1009D000F1019090F201A090F301B090F4016C1934
:1009E0007D098E099F0986169706A806B90608F0A4
:1009F00070CF8091F0010E94610385E01092860122
:100A00001092A80110928501DF91CF911F910F9153
:100A1000FF90EF90DF90CF90BF90AF909F908F901E
:100A200008959D9191938F5F69CF85EEA5CF8091B9
:100A3000F1019091F201A091F301B091F401892BA1
:100A40008A2B8B2B09F49ECF0E94C5020091F101E5
:100A50001091F2012091F3013091F4016C197D099C
:100A60008E099F09061717072807390708F08ACF4C
:100A7000C0CF81E0C3CF80E0C1CF82E0BFCF83E0B1
:100A8000BDCF0895E0917F0180918001E81730F497
:100A9000F0E0E153FE4F808190E008958FEF9FEFEB
:100AA000089590917F01809180012FEF3FEF98177B
:100AB00048F4E92FF0E0E153FE4F208130E09F5FE2
:100AC00090937F01C9010895CF92DF92EF92FF9238
:100AD0000F931F93CF93DF937C01CB018A01209169
:100AE0008501222389F0EB016B01C40ED51ECC15C4
:100AF000DD0569F06991D701ED91FC910190F081DC
:100B0000E02DC7010995F3CF642F0E941C03C80193
:100B1000DF91CF911F910F91FF90EF90DF90CF90D9
:100B20000895CF93DF931F92CDB7DEB769832091ED
:100B300085012223F9F02091A801203258F021E00C
:100B400030E0FC013383228390E080E00F90DF915E
:100B5000CF91089580918601E82FF0E0E957FE4F8C
:100B6000998190838F5F809386018093A80181E0B3
:100B700090E0ECCF61E0CE0101960E941C03F7CF1C
:100B800090E080E008950F931F93CF93DF93EC01E3
:100B900088819981009759F02A813B812617370770
:100BA00030F081E0DF91CF911F910F9108958B017B
:100BB0006F5F7F4F0E946110009759F0998388837F
:100BC0001B830A832C813D81232B59F7FC01108262
:100BD000E8CF80E0E7CFEF92FF920F931F93CF9380
:100BE000DF936115710541F480E0DF91CF911F9192
:100BF0000F91FF90EF90089541155105B1F07B01E1
:100C0000EC010C811D81040F151FB8010E94C30562
:100C1000882351F3288139818C819D81B701820F0E
:100C2000931F0E9427111D830C8381E0DECFCF9399
:100C3000DF93EC0188819981009711F00E94D80F11
:100C4000198218821D821C821B821A82DF91CF9129
:100C50000895CF92DF92EF92FF920F931F93CF935D
:100C6000DF93CDB7DEB7A1970FB6F894DEBF0FBE06
:100C7000CDBF7C01CB01BA01F70111821082138232
:100C80001282158214828E010F5F1F4F22E044E012
:100C90000E94280B6C01009771F0FC01019000206C
:100CA000E9F731978F01081B190BB801C7010E94A2
:100CB000C305811112C0C7010E941706A1960FB685
:100CC000F894DEBF0FBECDBFDF91CF911F910F9182
:100CD000FF90EF90DF90CF900895F7011583048384
:100CE000B601808191810E942711E8CFFC018081AB
:100CF0009181009711F00C94D80F089585ED8093A1
:100D0000BC008091F1019091F201A091F301B091AA
:100D1000F4010796A11DB11D23E0B695A7959795FF
:100D200087952A95D1F72091BC0024FD03C010922D
:100D3000EF0108954091F1015091F2016091F301AA
:100D40007091F401452B462B472B69F30097A105C1
:100D5000B10541F025E32A95F1F700000197A109BB
:100D6000B109E1CF8091F0010C9461031F920F92C1
:100D70000FB60F9211242F933F934F935F936F936E
:100D80007F938F939F93AF93BF93EF93FF9385EFE1
:100D900091E00E94EA01FF91EF91BF91AF919F9185
:100DA0008F917F916F915F914F913F912F910F9014
:100DB0000FBE0F901F9018951F920F920FB60F92B3
:100DC00011242F938F939F93EF93FF93E09105024C
:100DD000F09106028081E0910B02F0910C0282FDFD
:100DE0001BC0908180910E028F5F8F7320910F0244
:100DF000821741F0E0910E02F0E0EB50FE4F958F2C
:100E000080930E02FF91EF919F918F912F910F9000
:100E10000FBE0F901F9018958081F4CF1F920F92F4
:100E20000FB60F9211242F933F938F939F93AF93FD
:100E3000BF938091810190918201A0918301B09133
:100E400084013091760123E0230F2D3758F5019668
:100E5000A11DB11D209376018093810190938201A1
:100E6000A0938301B09384018091770190917801E0
:100E7000A0917901B0917A010196A11DB11D8093D5
:100E8000770190937801A0937901B0937A01BF9193
:100E9000AF919F918F913F912F910F900FBE0F9027
:100EA0001F90189526E8230F0296A11DB11DD2CFE1
:100EB0001F920F920FB60F9211242F933F934F93CF
:100EC0005F936F937F938F939F93AF93BF93EF93B2
:100ED000FF938091B900887F803609F44AC0F0F50D
:100EE000883209F4A7C018F5803109F49BC0B8F422
:100EF000882309F4F9C0883009F494C0FF91EF9178
:100F0000BF91AF919F918F917F916F915F914F9121
:100F10003F912F910F900FBE0F901F901895883121
:100F200009F488C0803251F78093CD0114C0803419
:100F300009F49DC040F48033B9F38833F9F6809307
:100F4000CD0185ECB0C0803509F485C0883509F441
:100F500096C0883499F60E947E06D0CF883909F46D
:100F60008CC038F5883729F050F4883611F0803776
:100F700029F683E08093EF011092750157C08838FD
:100F800009F47BC0803919F0803809F0B7CF80911F
:100F90007501803208F071C0E091750181E08E0F1B
:100FA000809375018091BB00F0E0EB5AFE4F808387
:100FB0003DC0803B39F0E0F4803A09F479C0883ACA
:100FC00009F09CCF84E08093EF01109254011092BD
:100FD0005301E0917D01F0917E01099580915301CB
:100FE00081110FC081E0809353011092330109C039
:100FF000803C09F4A6CF883C09F4A3CF883B09F0D4
:101000007DCFE091540181E08E0F80935401F0E098
:10101000ED5CFE4F80818093BB00909154018091E4
:10102000530129C08091CA018093BB0085EC809355
:10103000BC0064CF9091CC018091CB01981758F5FA
:10104000E091CC0181E08E0F8093CC01F0E0E75578
:10105000FE4F8081E9CFE091CC0181E08E0F80933B
:10106000CC018091BB00F0E0E755FE4F808390916A
:10107000CC018091CB019817C8F285E8D8CFE091D8
:10108000CC0181E08E0F8093CC018091BB00F0E019
:10109000E755FE4F80838091CE0181115CCF81E0C6
:1010A0008093C90184EA8093BC001092EF0126CF9F
:1010B00085EC8093BC001092EF0180917501803225
:1010C00030F4E0917501F0E0EB5AFE4F1082609130
:1010D000750170E0E0917B01F0917C0185E591E084
:1010E0000995109275010ACF1092CD0134CFE5EF2A
:1010F000F1E01382128288EE93E0A0E0B0E08483F6
:101100009583A683B7832AE031E03183208325ECE1
:1011100030E03587248724EC30E03787268720ECC1
:1011200030E0318B208B21EC30E0338B228B22ECB2
:1011300030E0358B248B26EC30E0378B268B118EFC
:10114000128E138E148EE2E9F2E0138212828483EF
:101150009583A683B7838CE191E091838083089582
:10116000CF93DF93CDB7DEB762970FB6F894DEBFAB
:101170000FBECDBF789484B5826084BD84B5816094
:1011800084BD85B5826085BD85B5816085BD809152
:101190006E00816080936E001092810080918100CA
:1011A00082608093810080918100816080938100C2
:1011B000809180008160809380008091B100846084
:1011C0008093B1008091B00081608093B0008091E5
:1011D0007A00846080937A0080917A0082608093A4
:1011E0007A0080917A00816080937A0080917A0001
:1011F000806880937A001092C1000E9443038AE2C3
:1012000091E090937E0180937D018BE291E0909339
:101210007C0180937B018AE00E94040189E00E94A6
:101220000401E0910502F091060282E08083E091E2
:101230000102F09102021082E0910302F091040297
:101240008FEC808310920D02E0910902F0910A0266
:1012500086E08083E0910702F0910802808180613E
:101260008083E0910702F09108028081886080838A
:10127000E0910702F0910802808180688083E0910C
:101280000702F091080280818F7D808380E0282E04
:1012900080E0382E81E080938501E0E4E093A701AF
:1012A000109286011092A80165EF82E992E00E94F7
:1012B000910581E00E94510464EF71E080E090E0CC
:1012C0000E94EA0262E080E40E94820310927F01A1
:1012D000809380018230B1F582E992E00E9451054D
:1012E0008C0182E992E00E9451057C01B80190E0F6
:1012F00080E00E947D0D20E030E040E853E40E9451
:10130000BA0D2B013C01B70190E080E00E947D0DF9
:101310009B01AC01C301B2010E94CA0E20E030E083
:101320004AEF52E40E94BA0D20E030E040E857E373
:101330000E94BA0D20E030E040EC50E40E94C90E5B
:101340002B013C01F1E0F09385011092860110928F
:10135000A80163EF82E992E00E94910581E00E947A
:10136000510464EF71E080E090E00E94EA0262E0E4
:1013700080E40E94820310927F018093800182307A
:10138000B1F582E992E00E9451058C0182E992E078
:101390000E9451057C01B80190E080E00E947D0D23
:1013A00020E030E040E853E40E94BA0D4B015C01BC
:1013B000B70190E080E00E947D0D9B01AC01C5016A
:1013C000B4010E94CA0E22E538EB4FE253E40E94BA
:1013D000BA0D20E030E040E857E30E94BA0D26E65F
:1013E00036E64BE352E40E94C90E4B015C01B501A5
:1013F000A401CE0101960E942906B301A201CE01EB
:1014000007960E9429061E861D86188A1F861A8A3C
:10141000198A61E070E0CE010D960E94C30581112A
:10142000BAC0CE010D960E9417064B855C856F8170
:101430007885CE010D960E94EB05811104C0CE0186
:101440000D960E94170641E050E06CE271E0CE017B
:101450000D960E94EB05811104C0CE010D960E94ED
:1014600017064D815E8169817A81CE010D960E94B9
:10147000EB05811104C0CE010D960E941706498923
:101480005A896D857E8585EF91E00E942C0142E0AE
:1014900050E06EE271E085EF91E00E942C01CE01F8
:1014A0000D960E947606CE0107960E947606CE0122
:1014B00001960E94760685EF91E00E94CA011816F7
:1014C0001906CCF70E948A01FC0197FD76C08D3287
:1014D000910521F0C0970A9708F068C0C12CD12C63
:1014E000760110E0E130F105D9F0ED32F10509F4B3
:1014F00062C0CF01C0970A9798F4AAE0B0E0A701B4
:1015000096010E94780E6F01FF0FEE08FF08C60ECD
:10151000D71EE81EF91E80E3C81AD108E108F108B9
:1015200085EF91E00E9468010E948A01FC01C0974A
:101530000A97C0F2E130F105A9F2112341F0F094CD
:10154000E094D094C094C11CD11CE11CF11C860114
:101550008AE00E940401C114D10499F560E08AE098
:101560000E94790289E00E94040160E089E00E9403
:10157000790260EA7FE080E090E00E94EA022114B4
:10158000310409F487CE0E94D601882309F482CE63
:101590000E9400007FCE81E090E09A8B898B6AE206
:1015A00071E08D859E850E9427113FCF85EF91E0E8
:1015B0000E94680187CF11E0B3CFC12CD12C7601F6
:1015C000C6CF0F3F110511F461E0C9CFECE6F1E0A1
:1015D0008491833019F140F48130B1F08230C9F048
:1015E000003811058CF7BACF873011F1883041F1FE
:1015F0008430B1F780918000806280938000D09227
:101600008B00C0928A00AECF84B5806884BDC7BC11
:10161000A9CF84B5806284BDC8BCA4CF809180006E
:10162000806880938000D0928900C09288009ACF11
:101630008091B00080688093B000C092B30092CFD8
:101640008091B00080628093B000C092B4008ACFD5
:10165000EF920F931F93CF93DF93E80134E047FDA0
:1016600034E1042E000C550B57FF03C051954195F2
:101670005109E32E022F242FAE010E94460BCE010A
:10168000DF91CF911F910F91EF900895A9E0B0E005
:10169000ECE4FBE00C94890E6A01F22EB02E102FC0
:1016A000FBE3AF2EA01608F41BE31F5F012F27E01A
:1016B000AE014F5F5F4F0E94A50CBC018981982F3E
:1016C0009970913009F43FC09BE2E1FC04C09E2D6B
:1016D0009170E0FC3AC05E2D5071E82FE87083FFF6
:1016E00046C084E0911101C083E0EF2DE81B8F1507
:1016F00008F0E0E0D6018E2F20E2552351F1992326
:1017000029F0D6019C93C60101966C0196012D5FCC
:101710003F4FE2FE24C08EE4D6018C9391E41196F3
:101720009C93119712968C93D9018E2F90E2811180
:101730001BC0E20FF32FF11D10828EEF9FEF299651
:10174000ECE00C94A50E9DE2C6CF90E2C4CF2D93A1
:1017500081508111FCCFCE0ED11CE0E0D0CF8EE6BF
:10176000D6018C9391E6DBCF9D938150E0CF482F3B
:10177000447082FF3DC084E0911101C083E08F1569
:1017800010F4EF2DE81BD6018E2F20E2552309F12E
:10179000992329F0D6019C93C60101966C0196010C
:1017A0002D5F3F4FE2FE1BC089E4D6018C938EE48F
:1017B00011968C93119786E412968C93D9018E2FF3
:1017C00090E2882309F4B5CF9D938150FACF2D93F1
:1017D00081508111FCCFCE0ED11CE0E0D9CF89E63B
:1017E000D6018C938EE611968C93119786E6E4CF02
:1017F0009B0177FF02C030E020E0A1E0B0E0911152
:1018000002C0B0E0A0E0F9013196AE0FBF1F8B2CF3
:10181000912CBB2009F461C05401EFEFAE1ABE0A4F
:10182000AA0DBB1DFA161B0619F014F04F2D4A1B0A
:10183000511188C0E3FC59C07601A42FB0E2A11178
:101840004FC0C40ED11C992309F45BC040E0D601FF
:101850001196F60190836D01552309F448C0012FBC
:10186000060F9A81582F507184FF03C0913309F4F9
:10187000015010160CF047C0093008F008E0EEE205
:10188000FE2E5B01A01AB108850191948194910804
:101890002F3F320729F4D601FC92F60131966F01F1
:1018A0006217730794F1021713077CF5DB01A21B83
:1018B000B30BAA24A394B12CAC0EBD1EAA0DBB1D64
:1018C00011968C9121503109D601119628153905B0
:1018D000F4F0F60180836D01DBCFB12CA12CA0CFF9
:1018E000F701B1937F01A150AACF9111B0CFD601DA
:1018F000942F50E302C05D9391509111FCCFC40E20
:10190000D11C40E0ACCF01E0BACF80E3DBCF62175F
:10191000730731F4963388F4953311F4552369F045
:10192000F6018083FD01842F90E2811108C0A40F8D
:10193000B11D1C9290E080E002CF81E3F1CF919342
:101940008150F3CF911183CF8ACF283008F027E060
:101950003327DA01990F311D87FD916000966105EB
:10196000710539F432602E5F3D9330E32A95E1F73B
:1019700008959F3F30F080387105610509F03C5FA4
:101980003C5F3D93913008F08068911DDF93CF93C9
:101990001F930F93FF92EF92192F987F9695E92F3F
:1019A00096959695E90FFF27EE53FF4F992733271A
:1019B000EE24FF24A701E70105900894079428F47A
:1019C000360FE71EF81E491F511D660F771F881F2F
:1019D000991F0694A1F70590079428F4E70EF81EC6
:1019E000491F561FC11D770F881F991F661F069438
:1019F000A1F70590079428F4F80E491F561FC71F3A
:101A0000D11D880F991F661F771F0694A1F70590B7
:101A1000079420F4490F561FC71FD81F990F661F40
:101A2000771F881F0694A9F784911095177041F0CD
:101A3000D695C79557954795F794E7941A95C1F7AA
:101A4000E8E6F0E0689415901591359165919591CF
:101A500005907FE27395E118F10A430B560BC90B11
:101A6000D009C0F7E10CF11E431F561FC91FD01D3E
:101A70007EF4703311F48A95E6CFE894015030F08B
:101A8000080F0AF40027021708F4202F2395022FCD
:101A90007A3328F079E37D932A95E9F710C07D9396
:101AA0002A9589F606949795679537951795179413
:101AB000E118F10A430B560BC90BD00998F0239596
:101AC0007E9173957A3308F070E37C932013B8F716
:101AD0007E9170617D9330F0839571E37D9370E327
:101AE0002A95E1F71124EF90FF900F911F91CF916C
:101AF000DF91992787FD90950895E89409C097FB99
:101B00003EF490958095709561957F4F8F4F9F4FD4
:101B10009923A9F0F92F96E9BB279395F695879518
:101B200077956795B795F111F8CFFAF4BB0F11F4DB
:101B300060FF1BC06F5F7F4F8F4F9F4F16C0882382
:101B400011F096E911C0772321F09EE8872F762FB8
:101B500005C0662371F096E8862F70E060E02AF0F9
:101B60009A95660F771F881FDAF7880F96958795E5
:101B700097F908950E94CD0D0C943E0E0E94300EF0
:101B800038F00E94370E20F0952311F00C94270EA8
:101B90000C942D0E11240C94720E0E944F0E70F3B3
:101BA000959FC1F3950F50E0551F629FF001729F02
:101BB000BB27F00DB11D639FAA27F00DB11DAA1F11
:101BC000649F6627B00DA11D661F829F2227B00D5E
:101BD000A11D621F739FB00DA11D621F839FA00DE9
:101BE000611D221F749F3327A00D611D231F849F39
:101BF000600D211D822F762F6A2F11249F57504090
:101C00009AF0F1F088234AF0EE0FFF1FBB1F661F0A
:101C1000771F881F91505040A9F79E3F510580F0D3
:101C20000C94270E0C94720E5F3FE4F3983ED4F3AD
:101C3000869577956795B795F795E7959F5FC1F777
:101C4000FE2B880F911D9695879597F9089597F922
:101C50009F6780E870E060E008959FEF80EC089552
:101C600000240A941616170618060906089500247B
:101C70000A9412161306140605060895092E0394F5
:101C8000000C11F4882352F0BB0F40F4BF2B11F469
:101C900060FF04C06F5F7F4F8F4F9F4F089557FDC8
:101CA0009058440F551F59F05F3F71F04795880FCA
:101CB00097FB991F61F09F3F79F087950895121661
:101CC00013061406551FF2CF4695F1DF08C016160D
:101CD00017061806991FF1CF8695710561050894BE
:101CE0000895E894BB2766277727CB0197F90895D5
:101CF0000E94BA0EA59F900DB49F900DA49F800DD9
:101D0000911D112408952F923F924F925F926F92EE
:101D10007F928F929F92AF92BF92CF92DF92EF927B
:101D2000FF920F931F93CF93DF93CDB7DEB7CA1BFC
:101D3000DB0B0FB6F894DEBF0FBECDBF09942A8827
:101D4000398848885F846E847D848C849B84AA84CF
:101D5000B984C884DF80EE80FD800C811B81AA815C
:101D6000B981CE0FD11D0FB6F894DEBF0FBECDBF27
:101D7000ED010895A29FB001B39FC001A39F700D14
:101D8000811D1124911DB29F700D811D1124911D83
:101D900008955058BB27AA270E94E10E0C943E0ECE
:101DA0000E94300E38F00E94370E20F039F49F3F29
:101DB00019F426F40C942D0E0EF4E095E7FB0C9428
:101DC000270EE92F0E944F0E58F3BA1762077307C8
:101DD0008407950720F079F4A6F50C94710E0EF4A3
:101DE000E0950B2EBA2FA02D0B01B90190010C012B
:101DF000CA01A0011124FF27591B99F0593F50F443
:101E0000503E68F11A16F040A22F232F342F44279A
:101E1000585FF3CF469537952795A795F040539592
:101E2000C9F77EF41F16BA0B620B730B840BBAF062
:101E30009150A1F0FF0FBB1F661F771F881FC2F7CD
:101E40000EC0BA0F621F731F841F48F487957795E1
:101E50006795B795F7959E3F08F0B0CF9395880F9B
:101E600008F09927EE0F979587950895EE0FFF1FBD
:101E70000590F491E02D09940F931F93CF93DF9376
:101E80008230910510F482E090E0E091A002F091A0
:101E9000A10230E020E0B0E0A0E0309799F42115F5
:101EA000310509F44AC0281B390B24303105D8F517
:101EB0008A819B816115710589F1FB01938382837E
:101EC000FE0111C0408151810281138148175907D9
:101ED000E0F04817590799F4109761F012960C93A7
:101EE000129713961C933296CF01DF91CF911F91D9
:101EF0000F9108950093A0021093A102F4CF211531
:101F0000310551F04217530738F0A901DB019A015E
:101F1000BD01DF01F801C1CFEF01F9CF9093A1021C
:101F20008093A002CDCFFE01E20FF31F8193919326
:101F30002250310939832883D7CF20919E023091D6
:101F40009F02232B41F42091020130910301309331
:101F50009F0220939E0220910001309101012115E2
:101F6000310541F42DB73EB7409104015091050170
:101F7000241B350BE0919E02F0919F02E217F307BC
:101F8000A0F42E1B3F0B2817390778F0AC014E5FE9
:101F90005F4F2417350748F04E0F5F1F50939F0285
:101FA00040939E02819391939FCFF0E0E0E09CCF1D
:101FB000CF93DF930097E9F0FC01329713821282EE
:101FC000A091A002B091A102ED0130E020E01097B5
:101FD000A1F420813181820F931F20919E023091C4
:101FE0009F022817390709F061C0F0939F02E09320
:101FF0009E02DF91CF910895EA01CE17DF07E8F541
:102000004A815B819E0141155105B1F7E901FB83CE
:10201000EA8349915991C40FD51FEC17FD0761F46C
:10202000808191810296840F951FE90199838883AD
:10203000828193819B838A83F0E0E0E012968D9108
:102040009C9113970097B9F52D913C911197CD0173
:102050000296820F931F20919E0230919F022817B3
:10206000390739F6309751F51092A1021092A0026B
:10207000B0939F02A0939E02BCCFD383C2834081C2
:102080005181840F951FC817D90761F44E5F5F4FC8
:1020900088819981480F591F518340838A819B8190
:1020A000938382832115310509F0B0CFF093A1020B
:1020B000E093A0029ECFFD01DC01C0CF138212820B
:1020C000D7CFB0E0A0E0E7E6F0E10C94850E8C01FC
:1020D000009751F4CB010E943C0F8C01C801CDB791
:1020E000DEB7E0E10C94A10EFC01E60FF71F9C01A6
:1020F00022503109E217F30708F49DC0D901CD91B0
:10210000DC911197C617D70798F0C530D10530F389
:10211000CE0104978617970708F3C61BD70B2297A3
:10212000C193D1936D937C93CF010E94D80FD6CFEA
:102130005B01AC1ABD0A4C018C0E9D1EA091A00241
:10214000B091A102512C412CF12CE12C109731F5CA
:1021500080919E0290919F028815990509F05CC0BC
:102160004616570608F058C0809100019091010171
:10217000009741F48DB79EB740910401509105013D
:10218000841B950BE817F90708F055C0F0939F02E0
:10219000E0939E02F90171836083A0CF8D919C91A1
:1021A000119712966C90129713967C901397A8151E
:1021B000B90559F56C0142E0C40ED11CCA14DB0408
:1021C00020F1AC014A195B09DA011296159780F0EB
:1021D0006282738251834083D9016D937C93E114B1
:1021E000F10471F0D7011396FC93EE93129776CF1A
:1021F00022968C0F9D1FF90191838083F301EFCF0D
:10220000F093A102E093A00269CF4816590608F4A2
:102210002C017D01D3019ACFCB010E943C0F7C01A0
:10222000009749F0AE01B8010E941E11C8010E943A
:10223000D80F870153CF10E000E050CFFB01DC0145
:1022400002C001900D9241505040D8F70895FB0113
:10225000DC0101900D920020E1F70895F894FFCF82
:102260000000A2028000000000000C022C015901B5
:102270005902CA0168017C01000000009105640553
:10228000C0054105230151054205480054000D0ACF
:0222900000004C
:00000001FF
